:100000000C9461000C9473000C9473000C947300B6
:100010000C9473000C9473000C9473000C94730094
:100020000C9473000C9473000C9473000C94730084
:100030000C9473000C9473000C9473000C94730074
:100040000C9479010C9473000C9473000C9473005D
:100050000C9473000C9473000C9473000C94730054
:100060000C9473000C94730000000000240027001F
:100070002A0000000000250028002B0000000000DE
:1000800023002600290004040404040404040202DA
:100090000202020203030303030301020408102007
:1000A0004080010204081020010204081020000012
:1000B0000008000201000003040700000000000027
:1000C000000011241FBECFEFD8E0DEBFCDBF21E07E
:1000D000A0E0B1E001C01D92AD31B207E1F70E948E
:1000E000C3010C943D040C940000833081F028F48B
:1000F000813099F08230A9F008958730A9F08830D6
:10010000C9F08430B1F4809180008F7D03C080916C
:1001100080008F7780938000089584B58F7784BDA9
:10012000089584B58F7DFBCF8091B0008F77809349
:10013000B00008958091B0008F7DF9CFCF93DF9309
:10014000EAEBF0E08491E6EAF0E0D491E2E9F0E055
:10015000C491CC23A1F081110E947500EC2FF0E036
:10016000EE0FFF1FE458FF4FA591B491EC91ED23E2
:1001700081E090E009F480E0DF91CF91089580E084
:1001800090E0FACF1F93CF93DF93282F30E0F9014F
:10019000E255FF4F8491F901E656FF4FD491F901E2
:1001A000EA57FF4FC491CC23A9F0162F81110E946A
:1001B0007500EC2FF0E0EE0FFF1FEE58FF4FA591FA
:1001C000B4918FB7F894EC91111108C0D095DE234B
:1001D000DC938FBFDF91CF911F910895DE2BF8CF75
:1001E000CF93DF9390E0FC01E656FF4F24918A57AE
:1001F0009F4FFC0184918823D1F090E0880F991FD4
:10020000FC01E859FF4FA591B491FC01EE58FF4F56
:10021000C591D491623071F49FB7F8943C91822FCC
:10022000809583238C93E8812E2B28839FBFDF91B9
:10023000CF9108958FB7F894EC912E2B2C938FBF0C
:10024000F6CF3FB7F8948091190190911A01A091CF
:100250001B01B0911C0126B5A89B05C02F3F19F0CA
:100260000196A11DB11D3FBFBA2FA92F982F882736
:10027000BC01CD01620F711D811D911D42E0660F11
:10028000771F881F991F4A95D1F708958F929F92E3
:10029000AF92BF92CF92DF92EF92FF926B017C01FF
:1002A0000E9421014B015C01C114D104E104F1045D
:1002B000B9F00E942101681979098A099B09683EF1
:1002C00073408105910580F321E0C21AD108E1084D
:1002D000F10888EE880E83E0981EA11CB11CE4CFC3
:1002E000FF90EF90DF90CF90BF90AF909F908F9056
:1002F00008951F920F920FB60F9211242F933F93E0
:100300008F939F93AF93BF938091150190911601A6
:10031000A0911701B09118013091140123E0230F2F
:100320002D3758F50196A11DB11D2093140180931E
:10033000150190931601A0931701B09318018091B5
:10034000190190911A01A0911B01B0911C01019615
:10035000A11DB11D8093190190931A01A0931B0157
:10036000B0931C01BF91AF919F918F913F912F91BD
:100370000F900FBE0F901F90189526E8230F02963E
:10038000A11DB11DD2CF789484B5826084BD84B59F
:10039000816084BD85B5826085BD85B5816085BD80
:1003A00080916E00816080936E0010928100809138
:1003B00081008260809381008091810081608093C0
:1003C0008100809180008160809380008091B100E5
:1003D00084608093B1008091B00081608093B00010
:1003E00080917A00846080937A0080917A008260A4
:1003F00080937A0080917A00816080937A00809166
:100400007A00806880937A001092C10062E08CE0EC
:100410000E94F00061E081E00E94F00061E082E073
:100420000E94F00061E083E00E94F00061E084E05F
:100430000E94F00061E085E00E94F00061E086E04B
:100440000E94F00061E087E00E94F00080E0E82E6A
:1004500080E0F82EC1E0D0E00E949E00892B21F4BC
:10046000D0931301C0931201809112019091130156
:10047000892BF9F011E061E0812F0E94C20060E059
:1004800087E00E94C2001F5F1730A9F760E273E0A7
:1004900080E090E00E9446010E949E00892B21F797
:1004A000D0931101C0931001109213011092120108
:1004B000DBCF8091100190911101892B79F160E0DF
:1004C00081E00E94C20061E082E00E94C20061E01F
:1004D00083E00E94C20060E084E00E94C20060E00D
:1004E00085E00E94C20060E086E00E94C20060E0F9
:1004F00087E00E94C20060E273E080E090E00E942A
:1005000046010E949E00892BA1F6D0930F01C09353
:100510000E011092110110921001CBCF80910E01AB
:1005200090910F01892B79F161E081E00E94C20076
:1005300061E082E00E94C20060E083E00E94C200AD
:1005400061E084E00E94C20061E085E00E94C20098
:1005500060E086E00E94C20061E087E00E94C20085
:1005600060E273E080E090E00E9446010E949E00FD
:10057000892BA1F6D0930D01C0930C0110920F01AD
:1005800010920E01CBCF80910C0190910D01892B1F
:1005900079F161E081E00E94C20061E082E00E94A6
:1005A000C20061E083E00E94C20061E084E00E943A
:1005B000C20060E085E00E94C20060E086E00E9428
:1005C000C20061E087E00E94C20060E273E080E068
:1005D00090E00E9446010E949E00892BA1F6D093D4
:1005E0000B01C0930A0110920D0110920C01CBCFA8
:1005F00080910A0190910B01892B79F160E081E0F3
:100600000E94C20061E082E00E94C20061E083E0DB
:100610000E94C20060E084E00E94C20060E085E0C9
:100620000E94C20061E086E00E94C20061E087E0B3
:100630000E94C20060E273E080E090E00E94460108
:100640000E949E00892BA1F6D0930901C093080156
:1006500010920B0110920A01CBCF8091080190916A
:100660000901892B79F161E081E00E94C20060E01C
:1006700082E00E94C20061E083E00E94C20061E06B
:1006800084E00E94C20060E085E00E94C20061E058
:1006900086E00E94C20061E087E00E94C20060E242
:1006A00073E080E090E00E9446010E949E00892B4A
:1006B000A1F6D0930701C093060110920901109290
:1006C0000801CBCF8091060190910701892B79F128
:1006D00061E081E00E94C20060E082E00E94C2000E
:1006E00061E083E00E94C20061E084E00E94C200F9
:1006F00061E085E00E94C20061E086E00E94C200E5
:1007000061E087E00E94C20060E273E080E090E078
:100710000E9446010E949E00892BA1F6D0930501FC
:10072000C09304011092070110920601CBCF809173
:10073000040190910501892B79F161E081E00E942B
:10074000C20061E082E00E94C20061E083E00E949A
:10075000C20060E084E00E94C20060E085E00E9488
:10076000C20060E086E00E94C20060E087E00E9474
:10077000C20060E273E080E090E00E9446010E94C7
:100780009E00892BA1F6D0930301C0930201109221
:10079000050110920401CBCF8091020190910301D9
:1007A000892B79F161E081E00E94C20061E082E082
:1007B0000E94C20061E083E00E94C20061E084E028
:1007C0000E94C20061E085E00E94C20061E086E014
:1007D0000E94C20061E087E00E94C20060E273E014
:1007E00080E090E00E9446010E949E00892BA1F6C5
:1007F000D0930101C09300011092030110920201F5
:10080000CBCF8091000190910101892B79F161E0BA
:1008100081E00E94C20061E082E00E94C20061E0CB
:1008200083E00E94C20061E084E00E94C20060E0B8
:1008300085E00E94C20061E086E00E94C20061E0A3
:1008400087E00E94C20060E273E080E090E00E94D6
:1008500046010E949E00892BA1F6D0931301C093FC
:1008600012011092010110920001CBCFE114F104AA
:0E08700009F4F2CD0E940000EFCDF894FFCF06
:00000001FF
